:020000040000fa
:080000000002040000000000f2
:020000040000fa
:04000800d803000019
:020000040000fa
:04000c0028030000c5
:020000040000fa
:040010003e030000ab
:020000040000fa
:040014005403000091
:020000040000fa
:040018006a03000077
:020000040000fa
:04001c00d803000005
:020000040000fa
:04002000d803000001
:020000040000fa
:04002400d8030000fd
:020000040000fa
:04002800d8030000f9
:020000040000fa
:04002c00d8030000f5
:020000040000fa
:04003000d8030000f1
:020000040000fa
:04003400d8030000ed
:020000040000fa
:04003800d8030000e9
:020000040000fa
:04003c00d8030000e5
:020000040000fa
:04004000d8030000e1
:020000040000fa
:04004400d8030000dd
:020000040000fa
:04004800d8030000d9
:020000040000fa
:04004c00d8030000d5
:020000040000fa
:04005000d8030000d1
:020000040000fa
:04005400d8030000cd
:020000040000fa
:04005800d8030000c9
:020000040000fa
:04005c00d8030000c5
:020000040000fa
:04006000d8030000c1
:020000040000fa
:04006400d8030000bd
:020000040000fa
:04006800d8030000b9
:020000040000fa
:04006c00d8030000b5
:020000040000fa
:04007000d8030000b1
:020000040000fa
:04007400d8030000ad
:020000040000fa
:04007800d8030000a9
:020000040000fa
:04007c00d8030000a5
:020000040000fa
:04008000d8030000a1
:020000040000fa
:04008400d80300009d
:020000040000fa
:04008800d803000099
:020000040000fa
:04008c00d803000095
:020000040000fa
:04009000d803000091
:020000040000fa
:04009400d80300008d
:020000040000fa
:04009800d803000089
:020000040000fa
:04009c00d803000085
:020000040000fa
:0400a000d803000081
:020000040000fa
:0400a400d80300007d
:020000040000fa
:0400a800d803000079
:020000040000fa
:0400ac00d803000075
:020000040000fa
:0400b000d803000071
:020000040000fa
:0400b400d80300006d
:020000040000fa
:0400b800d803000069
:020000040000fa
:0400bc00d803000065
:020000040000fa
:0400c000d803000061
:020000040000fa
:0400c400d80300005d
:020000040000fa
:0400c800d803000059
:020000040000fa
:0400cc00d803000055
:020000040000fa
:0400d000d803000051
:020000040000fa
:0400d400d80300004d
:020000040000fa
:0400d800d803000049
:020000040000fa
:0400dc00d803000045
:020000040000fa
:0400e000d803000041
:020000040000fa
:0400e400d80300003d
:020000040000fa
:0400e800d803000039
:020000040000fa
:0400ec00d803000035
:020000040000fa
:0400f000d803000031
:020000040000fa
:0400f400d80300002d
:020000040000fa
:0400f800d803000029
:020000040000fa
:0400fc00d803000025
:020000040000fa
:04010000d803000020
:020000040000fa
:04010400d80300001c
:020000040000fa
:04010800d803000018
:020000040000fa
:04010c00d803000014
:020000040000fa
:04011000d803000010
:020000040000fa
:04011400d80300000c
:020000040000fa
:04011800d803000008
:020000040000fa
:04011c00d803000004
:020000040000fa
:04012000d803000000
:020000040000fa
:04012400d8030000fc
:020000040000fa
:04012800d8030000f8
:020000040000fa
:04012c00d8030000f4
:020000040000fa
:04013000d8030000f0
:020000040000fa
:04013400d8030000ec
:020000040000fa
:04013800d8030000e8
:020000040000fa
:04013c00d8030000e4
:020000040000fa
:04014000d8030000e0
:020000040000fa
:04014400d8030000dc
:020000040000fa
:04014800d8030000d8
:020000040000fa
:04014c00d8030000d4
:020000040000fa
:04015000d8030000d0
:020000040000fa
:04015400d8030000cc
:020000040000fa
:04015800d8030000c8
:020000040000fa
:04015c00d8030000c4
:020000040000fa
:04016000d8030000c0
:020000040000fa
:04016400d8030000bc
:020000040000fa
:04016800d8030000b8
:020000040000fa
:04016c00d8030000b4
:020000040000fa
:04017000d8030000b0
:020000040000fa
:04017400d8030000ac
:020000040000fa
:04017800d8030000a8
:020000040000fa
:04017c00d8030000a4
:020000040000fa
:04018000d8030000a0
:020000040000fa
:04018400d80300009c
:020000040000fa
:04018800d803000098
:020000040000fa
:04018c00d803000094
:020000040000fa
:04019000d803000090
:020000040000fa
:04019400d80300008c
:020000040000fa
:04019800d803000088
:020000040000fa
:04019c00d803000084
:020000040000fa
:0401a000d803000080
:020000040000fa
:0401a400d80300007c
:020000040000fa
:0401a800d803000078
:020000040000fa
:0401ac00d803000074
:020000040000fa
:0401b000d803000070
:020000040000fa
:0401b400d80300006c
:020000040000fa
:0401b800d803000068
:020000040000fa
:0401bc00d803000064
:020000040000fa
:0401c000d803000060
:020000040000fa
:0401c400d80300005c
:020000040000fa
:0401c800d803000058
:020000040000fa
:0401cc00d803000054
:020000040000fa
:0401d000d803000050
:020000040000fa
:0401d400d80300004c
:020000040000fa
:0401d800d803000048
:020000040000fa
:0401dc00d803000044
:020000040000fa
:0401e000d803000040
:020000040000fa
:0401e400d80300003c
:020000040000fa
:0401e800d803000038
:020000040000fa
:0401ec00d803000034
:020000040000fa
:0401f000d803000030
:020000040000fa
:0401f400d80300002c
:020000040000fa
:0401f800d803000028
:020000040000fa
:0401fc00d803000024
:020000040000fa
:04020800d803000017
:020000040000fa
:04020c00800300006b
:020000040000fa
:040210009603000051
:020000040000fa
:04021400ac03000037
:020000040000fa
:04021800c20300001d
:020000040000fa
:04021c00d803000003
:020000040000fa
:04022000d8030000ff
:020000040000fa
:04022400d8030000fb
:020000040000fa
:04022800d8030000f7
:020000040000fa
:04022c00d8030000f3
:020000040000fa
:04023000d8030000ef
:020000040000fa
:04023400d8030000eb
:020000040000fa
:04023800d8030000e7
:020000040000fa
:04023c00d8030000e3
:020000040000fa
:04024000d8030000df
:020000040000fa
:04024400d8030000db
:020000040000fa
:04024800d8030000d7
:020000040000fa
:04024c00d8030000d3
:020000040000fa
:04025000d8030000cf
:020000040000fa
:04025400d8030000cb
:020000040000fa
:04025800d8030000c7
:020000040000fa
:04025c00d8030000c3
:020000040000fa
:04026000d8030000bf
:020000040000fa
:04026400d8030000bb
:020000040000fa
:04026800d8030000b7
:020000040000fa
:04026c00d8030000b3
:020000040000fa
:04027000d8030000af
:020000040000fa
:04027400d8030000ab
:020000040000fa
:04027800d8030000a7
:020000040000fa
:04027c00d8030000a3
:020000040000fa
:04028000d80300009f
:020000040000fa
:04028400d80300009b
:020000040000fa
:04028800d803000097
:020000040000fa
:04028c00d803000093
:020000040000fa
:04029000d80300008f
:020000040000fa
:04029400d80300008b
:020000040000fa
:04029800d803000087
:020000040000fa
:04029c00d803000083
:020000040000fa
:0402a000d80300007f
:020000040000fa
:0402a400d80300007b
:020000040000fa
:0402a800d803000077
:020000040000fa
:0402ac00d803000073
:020000040000fa
:0402b000d80300006f
:020000040000fa
:0402b400d80300006b
:020000040000fa
:0402b800d803000067
:020000040000fa
:0402bc00d803000063
:020000040000fa
:0402c000d80300005f
:020000040000fa
:0402c400d80300005b
:020000040000fa
:0402c800d803000057
:020000040000fa
:0402cc00d803000053
:020000040000fa
:0402d000d80300004f
:020000040000fa
:0402d400d80300004b
:020000040000fa
:0402d800d803000047
:020000040000fa
:0402dc00d803000043
:020000040000fa
:0402e000d80300003f
:020000040000fa
:0402e400d80300003b
:020000040000fa
:0402e800d803000037
:020000040000fa
:0402ec00d803000033
:020000040000fa
:0402f000d80300002f
:020000040000fa
:0402f400d80300002b
:020000040000fa
:0402f800d803000027
:020000040000fa
:0402fc00d803000023
:020000040000fa
:04030000d80300001e
:020000040000fa
:04030400d80300001a
:020000040000fa
:04030800d803000016
:020000040000fa
:04030c00d803000012
:020000040000fa
:04031000d80300000e
:020000040000fa
:04031400d80300000a
:020000040000fa
:04031800d803000006
:020000040000fa
:04031c00d803000002
:020000040000fa
:04032000d8030000fe
:020000040000fa
:04032400d8030000fa
:020000040000fa
:04032800d8030000f6
:020000040000fa
:04032c00d8030000f2
:020000040000fa
:04033000d8030000ee
:020000040000fa
:04033400d8030000ea
:020000040000fa
:04033800d8030000e6
:020000040000fa
:04033c00d8030000e2
:020000040000fa
:04034000d8030000de
:020000040000fa
:04034400d8030000da
:020000040000fa
:04034800d8030000d6
:020000040000fa
:04034c00d8030000d2
:020000040000fa
:04035000d8030000ce
:020000040000fa
:04035400d8030000ca
:020000040000fa
:04035800d8030000c6
:020000040000fa
:04035c00d8030000c2
:020000040000fa
:04036000d8030000be
:020000040000fa
:04036400d8030000ba
:020000040000fa
:04036800d8030000b6
:020000040000fa
:04036c00d8030000b2
:020000040000fa
:04037000d8030000ae
:020000040000fa
:04037400d8030000aa
:020000040000fa
:04037800d8030000a6
:020000040000fa
:04037c00d8030000a2
:020000040000fa
:04038000d80300009e
:020000040000fa
:04038400d80300009a
:020000040000fa
:04038800d803000096
:020000040000fa
:04038c00d803000092
:020000040000fa
:04039000d80300008e
:020000040000fa
:04039400d80300008a
:020000040000fa
:04039800d803000086
:020000040000fa
:04039c00d803000082
:020000040000fa
:0403a000d80300007e
:020000040000fa
:0403a400d80300007a
:020000040000fa
:0403a800d803000076
:020000040000fa
:0403ac00d803000072
:020000040000fa
:0403b000d80300006e
:020000040000fa
:0403b400d80300006a
:020000040000fa
:0403b800d803000066
:020000040000fa
:0403bc00d803000062
:020000040000fa
:0403c000d80300005e
:020000040000fa
:0403c400d80300005a
:020000040000fa
:0403c800d803000056
:020000040000fa
:0403cc00d803000052
:020000040000fa
:0403d000d80300004e
:020000040000fa
:0403d400d80300004a
:020000040000fa
:0403d800d803000046
:020000040000fa
:0403dc00d803000042
:020000040000fa
:0403e000d80300003e
:020000040000fa
:0403e400d80300003a
:020000040000fa
:0403e800d803000036
:020000040000fa
:0403ec00d803000032
:020000040000fa
:0403f000d80300002e
:020000040000fa
:0403f400d80300002a
:020000040000fa
:0403f800d803000026
:020000040000fa
:0403fc00d803000022
:020000040000fa
:100400002f8320000e7f22000e01880000000000d4
:10041000000020000000e000020032000001200087
:100420002002880014000700e30007000000e0003d
:1004300003003a0020c42000010020000200370021
:100440000000200001002000810f70000100320038
:1004500014000700000020000000e000020032004d
:1004600000000200000000009a0c020000000000e2
:100470000040da000000fe004440a9000004200013
:100480000000e000030032000020200090018800fe
:100490004440a800000006008a1f78008b1f7800e7
:1004a00000000600a1028800800478000000eb0034
:1004b0001f003700e284440054a0b4009905ba003c
:1004c000e284440054a0b4009906ba00e2844400d7
:1004d00054a0b4000006eb00476fde00fd07b20039
:1004e000ae018800636ce10003003a00eaff0700f8
:1004f0000000eb000e003700606ce10008003a00dd
:10050000004deb000a05e800020039003420ec0041
:100510000af0a0008b05e900f9ff3e000400370057
:100520006168e100010032000086eb000b0007006b
:1005300019c7ba001905ba000e04e00003003a001a
:100540000a00e000dbff3a0000000600fe07b200f0
:10055000ae0288008a047800f5ff37000cd0a300b3
:10056000e20f4d001c00390089027800354dba00b9
:100570000a05e800020039003420ec000af0a0006f
:100580008b05e9000f003200254dba000a05e8008e
:10059000020039003420ec000af0a0008b05e900cd
:1005a000080032000c00e0000600320015cdba0051
:1005b0000a05e800020039003420ec000af0a0002f
:1005c0008b05e9008984e80054a0b4000b00e0002a
:1005d000e2ff3a00000006009902ba00055d7800cb
:1005e0008b05e900f7ff3200c82ade00055d7800c0
:1005f0008b05e900f3ff32000c00e000f1ff320050
:1006000019ddba00eeff3700ee090400000000001b
:10061000220a0400000000002c0a04000000000070
:100620004e0a040000000000080904000000000059
:10063000ee070400000000002e0804000000000087
:100640000e080400000000000a040400000000007e
:100650003200f8003400f800881f780018002000ed
:10066000a801880008202000980188004f04780025
:100670000000fa008020a900ffff37003200f800d8
:100680003400f800881f780018002000a8018800b6
:1006900008202000980188004f0478000000fa002c
:1006a0008060a900ffff37003200f8003400f80036
:1006b000881f780018002000a8018800082020006a
:1006c000980188004f0478000000fa008040a900db
:1006d000ffff37003200f8003400f800881f780070
:1006e00018002000a8018800082020009801880038
:1006f0004f0478000000fa008080a900ffff370057
:100700003200f8003400f800881f7800180020003c
:10071000a801880008202000980188004f04780074
:100720000000fa008020a900ffff37003200f80027
:100730003400f800881f780018002000a801880005
:1007400008202000980188004f0478000000fa007b
:100750008060a900ffff37003200f8003400f80085
:10076000881f780018002000a801880008202000b9
:10077000980188004f0478000000fa008040a9002a
:10078000ffff37003200f8003400f800881f7800bf
:1007900018002000a8018800082020009801880087
:1007a0004f0478000000fa008080a900ffff3700a6
:1007b0000040da000000fe00000005006022b800e2
:1007c000060220000000d0008180d2000482d20006
:1007d0008582d2000000a0000202520083825a00eb
:1007e000030031000202420083824a000000a1009f
:1007f0000603e900f3ff3a000000060080007800dd
:10080000010178003104e000fdff3a0000005100d2
:1008100000000600881f78000204780008017800b4
:10082000fd000700080040004f04780000000600ab
:100830000000fa00881f780000047800ea81570061
:100840003fb9970088007800a0402000070007000b
:100850000000e000020035008040eb0001747800e9
:100860004f0478000080fa00000006006200fa00e1
:10087000889fbe008a1f78000005780081047800f8
:10088000020478008300780080f92f000f004000f8
:10089000b00107009a979f00a9979f000000eb0006
:1008a000b09f9f001885fb008a04fb000a05ea0040
:1008b0004f55de0050022000808f54000d003200a2
:1008c000e10f55000b003a000a017800880078001b
:1008d0002f9097009f91970003000100a0979f0021
:1008e0000000e0008e0032003f9897000000e80012
:1008f000b09f9f000a04440050022000808f5400e3
:10090000040032000900e000e6ff3a003f9897003b
:10091000840037000000eb00909f9f00809f9f00a5
:10092000f0979f00e0979f00d0979f00c0979f008f
:1009300007003700818120000100500000004000c6
:10094000c180200061007800df98970001007000ee
:10095000d09f9f008804780009047800384578000b
:100960008a00fb0080812000b20007000000e00048
:10097000f0ff3a00a1c2b300814f55000e003a00cb
:10098000cf8897000180e900c08f9f001000780099
:10099000c09f9f000000e00005003d000000ea004d
:1009a000c09f9f005f9897000020a000d09f9f00ed
:1009b0000904e8000f003700c09f9f000000eb0013
:1009c00005003700f2ff2700820f500002003200be
:1009d0006a01b900028040000904780088047800a8
:1009e000b900fb000103b100e98f5000f5ff3600ac
:1009f000c09f9f00e0c2b300984f10000200320079
:100a00000080eb0019003700a0c2b300d84f1000df
:100a100007003a00cf8897000180e900c08f9f004f
:100a200010007800a09f9f000804e8001000370025
:100a30000000eb00a09f9f008800780005003700b1
:100a4000f3ff2700830f5000020032006a02b90052
:100a50000400410001047800880078003101fb00a7
:100a60000203b100e90f5100f5ff3600a09f9f007f
:100a7000984478008900fb00408020006d0007004a
:100a80000000e000020032000804e8000100370026
:100a90008044eb00c97f9f0080c6b30080cf540024
:100aa00004003a0098cf14000a003a006640500053
:100ab00006003700c0c6b30080cf540005003a00de
:100ac00098cf140003003a0065404000c07f9f00ab
:100ad0000804e8001801fb00e3fb2f008f814100b0
:100ae00081f92f008f804000a0f92f000f004000f7
:100af000100007000000e00009003a00e1fb2f00b1
:100b00008f804000a0f92f000f0040005500070023
:100b10000000e000020035000804e80061ff370033
:100b20000080eb004f0578004f04be000080fa0003
:100b300000000600889fbe008a1f7800000478002d
:100b400030c5b300804f51000800320030c7b300f9
:100b5000804f51000500320051c2b3007800900070
:100b6000814f510017003a00140037001180e9004e
:100b700080087800100578006a049800d80c90006e
:100b80000900e00004003d000a0078001bff070098
:100b90008004780007003700090178008000eb002e
:100ba0000a007800120007000000e0000100320097
:100bb0008a045000190c98000900370082717800ef
:100bc00005003700808141000204e00001003a0086
:100bd00001417800824978000000e8007004980024
:100be0000000eb004f0578004f04be000000060037
:100bf00003003700b0cf1000050032000201e90009
:100c0000800178000200e000faff3a0000000500d1
:100c10000300780000000600800178000200370021
:100c2000b15978000201e9000200e000fcff3a003f
:100c300000000600020037000304e0000600320056
:100c40000001780002007800b041780081cf5100a7
:100c5000f9ff3a00010037000001eb0002007800c4
:100c6000000006000400fa00889fbe008a9fbe00b4
:100c70008c1f78000004780001067800f80d9000c1
:100c80007800900080855500080890008085550008
:100c90001808900080855500280890008085550030
:100ca00038089000808555004808900080855500e0
:100cb0000002220090bf9f0000032300a0bf9f00fe
:100cc000081090000028a30015003a000b00e00077
:100cd000130034000b0578008a047800e20f5500f9
:100ce0000100360029002000c801900009017800a9
:100cf000ee80570058009000030001005004980057
:100d00000000e0008c0032006808900009004000fc
:100d1000600c9800090555004240a900eeff3c0018
:100d2000780190000200e0000c003400c80190003f
:100d30008c007800580090000300010050049800d7
:100d40008080eb000000e0007c003200e8089000aa
:100d50007800900000804000600c9800880c9000a3
:100d60000900e0001100340009057800e28f54000a
:100d7000010036002a002000c80190000a01780016
:100d8000ec805700580090000300010050049800c8
:100d90000000e00068003200680890000a0040008f
:100da000600c98008a845400edff37001809900009
:100db0000200e0000c003400c8019000e800900040
:100dc0005800900003000100500498008080eb0060
:100dd0000000e00059003200e80890001808900078
:100de00000804000600c9800a80c90000900e00012
:100df0001100340009057800e28f5400010036002c
:100e00002a002000c80190000a017800ec805700f9
:100e10005800900003000100500498000000e0001a
:100e200045003200680890000a004000600c9800fd
:100e30008a845400edff3700380990000200e0007a
:100e40000e003400e80090001808900080804000f8
:100e5000c801900058009000030001005004980061
:100e60008080eb000000e00034003200e8089000d1
:100e70003808900000804000600c9800c80c90007a
:100e80000900e0001100340009057800e28f5400e9
:100e9000010036002a002000c80190000a017800f5
:100ea000ec805700580090000300010050049800a7
:100eb0000000e00020003200680890000a004000b6
:100ec000600c98008a845400edff370008109000f1
:100ed0008000eb000028a300180032000b00e000a7
:100ee000160034008b04780009057800e28f540066
:100ef000010036002a002000c80190000a01780095
:100f0000ee80570058009000030001005004980044
:100f10000000e00008003200680890000a0040006d
:100f2000600c98008a8454004240a900eeff3c0007
:100f30008000eb00010037008080eb0001007800aa
:100f40004f0678004f05be004f04be000080fa0037
:0c0f500000000600010878000000060008
:020000040000fa
:100f5c00312e0000302e00003000000057450000fc
:100f6c004c4300004f4d000045200000544f000042
:100f7c0020540000455300005420000020200000a5
:100f8c002056000045520000202500007300000090
:100f9c00484500004c4c00004f2000005448000015
:100fac004953000020490000532000005448000021
:100fbc00452000004c430000442000005445000034
:100fcc0053540000202100002121000020000000cb
:020000040000fa
:100fdc000200fa00004f78001e82fb00020028007d
:100fec0043002000a001800083027800820078007a
:100ffc00a501880084087800a0018800200020004a
:10100c00c601070010c0b3000080fa000000060003
:10101c000200fa00004f78001e02fb00220028009c
:10102c0043002000a0018000830278008200780039
:10103c00a501880084087800a001880050002000d9
:10104c00b601070010c0b3000080fa0000000600d3
:10105c000200fa00000f78001e0078000000e0008b
:10106c0002003a000040eb00090037001e00780037
:10107c009000900010c0b300010001001e00780029
:10108c009000900020c0b3000100010010c0b3001c
:10109c000080fa00000006000e00fa0040079800dd
:1010ac0051079800424f9800534f9800ce00900083
:1010bc00210798000040eb00004f78000040eb0047
:1010cc00104798000040eb00204798002e0090003d
:1010dc000000e00002003a000040eb00470037003f
:1010ec004e489000e34f5000020036000040eb00e9
:1010fc00420037005e009000bdfd0700604798007d
:10110c004e489000e14f500005003a002e00900030
:10111c009000900000c8b3000100010004003700eb
:10112c002e0090009000900000ccb3000100010054
:10113c005e4890000004e000290032002e00900070
:10114c00a00090002e009000010001002400370048
:10115c001e407800ff4f500026003e002e409000ad
:10116c00ef4f5000120036000040eb002047980073
:10117c001e4090000004e00007003a002e00900092
:10118c009000900000ccb3000100010010c0b3002f
:10119c0010479800060037002e0090009000900039
:1011ac0000c8b300010001000040eb00104798009c
:1011bc002e009000b00090005e009000104078006f
:1011cc005e0190000201e800520798000100010046
:1011dc002e4090000040e800204798001e4fe80089
:1011ec006e4090009e40780080cf5000d8ff3a00af
:1011fc00010037000000000010c0b3000080fa00ae
:10120c00000006000000fa0001308000f07f2e0084
:10121c00008060000030880001a6a9000130800029
:10122c000030200001007000003088000130800088
:10123c00f0f32f00008060000030880000a6a900a9
:10124c000086a90001308000c0ff2f0000806000e4
:10125c00003088000046a900002020005030880093
:10126c0009e6a90009c6a8000986a8000946a80035
:10127c000926a80009a6a8000906a900413080008b
:10128c00f0f92f00008060000060a0004030880062
:10129c0061308000f0ff2300008060006030880027
:1012ac0061308000000c200001007000603088006c
:1012bc0061308000c00320000100700060308800a5
:1012cc00603080003000b300603088000266ef00b0
:1012dc0005e6a80005c6a8000586a80005a6a80076
:1012ec002130800000602000010070002030880058
:1012fc000506a800100020003030880001e6a80088
:10130c00802520000501070010c0b3000080fa0002
:10131c00000006000400fa00204798002e409000c0
:10132c000080fb006a00b9008000780080822000f9
:10133c00008f40001e007800104890000004e00070
:10134c00020032000000eb001f0037001e00780086
:10135c0011c0b300114898001e00780010007800ee
:10136c00000001001e0078009000900030c3b30014
:10137c00010001001e0078009000900020c3b30013
:10138c00010001001e0078009000900080c3b300a3
:10139c00010001001e00780090009000c0c0b30056
:1013ac00010001001e0078009000900060c0b300a6
:1013bc00010001001e007800a00090001e007800c3
:1013cc00010001001e0078000080fa0000000600f9
:1013dc000400fa00000f7800110798001e0090001e
:1013ec0000407800614060000080fb0061006000fc
:1013fc00811180000100a1000100700080118800a3
:10140c001e00780000407800634060000080fb0004
:10141c0063006000000040008211800091ff2f00eb
:10142c0081006100010070008011880010c0b300c1
:10143c000080fa00000006000200fa00000f78009d
:10144c0010c0b3000080fa00000006000400fa008f
:10145c00008fbe001e01be004218dd00ce10de0063
:10146c00810070004210dd000001be00004022002f
:10147c00410f2000cefc0700000078000000e900be
:10148c00c011880010c0b3000080fa0000000600f4
:10149c000000fa003342a80010c0b3000080fa002c
:1014ac00000006000400fa00000f780021479800a5
:1014bc002e4090000080fb00a0118800000000006e
:1014cc009111800000102000008060000000e000fe
:1014dc00fbff32000080fa00000006000400fa0056
:1014ec00204798002e4090000080fb006a00b90055
:1014fc0080007800e0812000008f40001e00780002
:10150c00004890000004e000020032000000eb00f4
:10151c00140037001e00780011c0b3000148980079
:10152c0080002000801188003222ef001e0078001d
:10153c002001900000582200010020000200010050
:10154c001e007800100178008000eb000000eb001a
:10155c00020001001e007800300090000000010025
:10156c001e0078000080fa00000006000000fa005f
:10157c004827ef0040a7a900320020008007200078
:10158c00a10920003374200080497800814978003b
:10159c0082497800103a8000000178000200a00017
:1015ac00600420007105200023742000804978001d
:1015bc00814978008249780000000000113a8000cf
:1015cc00000027008080600000002300808f500006
:1015dc00faff3a0000000000113a800000022000df
:1015ec00008060000000e000fbff320003000700f9
:1015fc0040a7a8000080fa00000006000600fa00d0
:10160c0020c0b300004f780060c4b30010479800ae
:10161c0070c5b30020479800207420002007980064
:10162c002e0090009e4090002e4190009e4178002c
:10163c000148780002487800034878000080fa00de
:10164c00000006000000fa00c8ff07006500070054
:10165c000080fa00000006002400fa000040eb00b5
:10166c009eff0700004088000040eb0029ff0700a8
:10167c0010408800e07a2800801f7800407b28000a
:10168c00801f78000e00780066fc0700e487570086
:10169c001040800013c0b30012c0b3008e0078005d
:1016ac007dfe0700200020003e0007000080fa00ad
:1016bc00000006000200fa00e7ff0700e07c2800ab
:1016cc00000f780020168000004078006140600018
:1016dc0000c0ea00614060000080fb006100600017
:1016ec00211680000100a100010070002016880066
:1016fc00100020002b0007001040800013c0b30026
:10170c0012c0b3009e00780063fe0700004080000a
:10171c0011c3b30063ff0700eaff37000400fa00af
:10172c00100798000000eb00000f78000000eb00a1
:10173c00000f78000400370000d0270001002000c3
:10174c006b0007001e0fe8001e0090009e00780042
:10175c00808f5000f8ff35000080fa000000060072
:10176c000400fa00100798000000eb00000f78004e
:10177c000000eb00000f780004003700000220008e
:10178c00010020005a0007001e0fe8001e00900008
:10179c009e007800808f5000f8ff35000080fa0022
:1017ac00000006000400fa00100798000000eb008f
:1017bc00000f78000000eb00000f780003003700ea
:1017cc00803e2000d5ff07001e0fe8001e00900091
:1017dc009e007800808f5000f9ff35000080fa00e1
:1017ec00000006000000fa00c002a900e882a80070
:1017fc00e8a2a800113a8000f00b200000816000e4
:10180c0060042000710520002374200080497800ba
:10181c0081497800824978003135800000fc2f0026
:10182c0000806000a000b30030358800000000008c
:10183c0081368000f00f2c0080806000005020006a
:10184c00010070008036880000000000103a800013
:10185c00000178000260a0006004200071052000e7
:10186c0023742000804978008149780082497800ef
:08187c000080fa0000000600e4
:020000040000fa
:101884000008000004000000800000001e080000a2
:101894000a00000082000000ee0922000a2c0a005f
:1018a4004e0a000000000000280800000a000000a2
:1018b400820000000809ee00072e08000e08200030
:1018c40000000000040800001a000000820000006c
:1018d400686a6c00747a4c00000001000002000089
:1018e4000400080000100000000020002b2d23003d
:0818f4003000000000000000bc
:020000040000fa
:1018fc00f03fb1000180b10006003500ee03090095
:10190c0000000000403fb1000180b100fbff3d0032
:10191c001000b000203fb00002003500008009002c
:08192c000000000000000600ad
:020000040000fa
:101934000000fa0045ff070060ff07000000eb000d
:081944000080fa00000006001b
:020000040000fa
:020000040002f8
:04aff000ffff00005f
:020000040000fa
:020000040002f8
:04aff400fff3000067
:020000040000fa
:020000040002f8
:04aff8003dfa00001e
:020000040000fa
:020000040002f8
:04affc00bf3e000054
:00000001FF
