:020000040000fa
:080000000002040000000000f2
:020000040000fa
:04000800b40300003d
:020000040000fa
:04000c0004030000e9
:020000040000fa
:040010001a030000cf
:020000040000fa
:0400140030030000b5
:020000040000fa
:04001800460300009b
:020000040000fa
:04001c00b403000029
:020000040000fa
:04002000b403000025
:020000040000fa
:04002400b403000021
:020000040000fa
:04002800b40300001d
:020000040000fa
:04002c00b403000019
:020000040000fa
:04003000b403000015
:020000040000fa
:04003400b403000011
:020000040000fa
:04003800b40300000d
:020000040000fa
:04003c00b403000009
:020000040000fa
:04004000b403000005
:020000040000fa
:04004400b403000001
:020000040000fa
:04004800b4030000fd
:020000040000fa
:04004c00b4030000f9
:020000040000fa
:04005000b4030000f5
:020000040000fa
:04005400b4030000f1
:020000040000fa
:04005800b4030000ed
:020000040000fa
:04005c00b4030000e9
:020000040000fa
:04006000b4030000e5
:020000040000fa
:04006400b4030000e1
:020000040000fa
:04006800b4030000dd
:020000040000fa
:04006c00b4030000d9
:020000040000fa
:04007000b4030000d5
:020000040000fa
:04007400b4030000d1
:020000040000fa
:04007800b4030000cd
:020000040000fa
:04007c00b4030000c9
:020000040000fa
:04008000b4030000c5
:020000040000fa
:04008400b4030000c1
:020000040000fa
:04008800b4030000bd
:020000040000fa
:04008c00b4030000b9
:020000040000fa
:04009000b4030000b5
:020000040000fa
:04009400b4030000b1
:020000040000fa
:04009800b4030000ad
:020000040000fa
:04009c00b4030000a9
:020000040000fa
:0400a000b4030000a5
:020000040000fa
:0400a400b4030000a1
:020000040000fa
:0400a800b40300009d
:020000040000fa
:0400ac00b403000099
:020000040000fa
:0400b000b403000095
:020000040000fa
:0400b400b403000091
:020000040000fa
:0400b800b40300008d
:020000040000fa
:0400bc00b403000089
:020000040000fa
:0400c000b403000085
:020000040000fa
:0400c400b403000081
:020000040000fa
:0400c800b40300007d
:020000040000fa
:0400cc00b403000079
:020000040000fa
:0400d000b403000075
:020000040000fa
:0400d400b403000071
:020000040000fa
:0400d800b40300006d
:020000040000fa
:0400dc00b403000069
:020000040000fa
:0400e000b403000065
:020000040000fa
:0400e400b403000061
:020000040000fa
:0400e800b40300005d
:020000040000fa
:0400ec00b403000059
:020000040000fa
:0400f000b403000055
:020000040000fa
:0400f400b403000051
:020000040000fa
:0400f800b40300004d
:020000040000fa
:0400fc00b403000049
:020000040000fa
:04010000b403000044
:020000040000fa
:04010400b403000040
:020000040000fa
:04010800b40300003c
:020000040000fa
:04010c00b403000038
:020000040000fa
:04011000b403000034
:020000040000fa
:04011400b403000030
:020000040000fa
:04011800b40300002c
:020000040000fa
:04011c00b403000028
:020000040000fa
:04012000b403000024
:020000040000fa
:04012400b403000020
:020000040000fa
:04012800b40300001c
:020000040000fa
:04012c00b403000018
:020000040000fa
:04013000b403000014
:020000040000fa
:04013400b403000010
:020000040000fa
:04013800b40300000c
:020000040000fa
:04013c00b403000008
:020000040000fa
:04014000b403000004
:020000040000fa
:04014400b403000000
:020000040000fa
:04014800b4030000fc
:020000040000fa
:04014c00b4030000f8
:020000040000fa
:04015000b4030000f4
:020000040000fa
:04015400b4030000f0
:020000040000fa
:04015800b4030000ec
:020000040000fa
:04015c00b4030000e8
:020000040000fa
:04016000b4030000e4
:020000040000fa
:04016400b4030000e0
:020000040000fa
:04016800b4030000dc
:020000040000fa
:04016c00b4030000d8
:020000040000fa
:04017000b4030000d4
:020000040000fa
:04017400b4030000d0
:020000040000fa
:04017800b4030000cc
:020000040000fa
:04017c00b4030000c8
:020000040000fa
:04018000b4030000c4
:020000040000fa
:04018400b4030000c0
:020000040000fa
:04018800b4030000bc
:020000040000fa
:04018c00b4030000b8
:020000040000fa
:04019000b4030000b4
:020000040000fa
:04019400b4030000b0
:020000040000fa
:04019800b4030000ac
:020000040000fa
:04019c00b4030000a8
:020000040000fa
:0401a000b4030000a4
:020000040000fa
:0401a400b4030000a0
:020000040000fa
:0401a800b40300009c
:020000040000fa
:0401ac00b403000098
:020000040000fa
:0401b000b403000094
:020000040000fa
:0401b400b403000090
:020000040000fa
:0401b800b40300008c
:020000040000fa
:0401bc00b403000088
:020000040000fa
:0401c000b403000084
:020000040000fa
:0401c400b403000080
:020000040000fa
:0401c800b40300007c
:020000040000fa
:0401cc00b403000078
:020000040000fa
:0401d000b403000074
:020000040000fa
:0401d400b403000070
:020000040000fa
:0401d800b40300006c
:020000040000fa
:0401dc00b403000068
:020000040000fa
:0401e000b403000064
:020000040000fa
:0401e400b403000060
:020000040000fa
:0401e800b40300005c
:020000040000fa
:0401ec00b403000058
:020000040000fa
:0401f000b403000054
:020000040000fa
:0401f400b403000050
:020000040000fa
:0401f800b40300004c
:020000040000fa
:0401fc00b403000048
:020000040000fa
:04020800b40300003b
:020000040000fa
:04020c005c0300008f
:020000040000fa
:040210007203000075
:020000040000fa
:04021400880300005b
:020000040000fa
:040218009e03000041
:020000040000fa
:04021c00b403000027
:020000040000fa
:04022000b403000023
:020000040000fa
:04022400b40300001f
:020000040000fa
:04022800b40300001b
:020000040000fa
:04022c00b403000017
:020000040000fa
:04023000b403000013
:020000040000fa
:04023400b40300000f
:020000040000fa
:04023800b40300000b
:020000040000fa
:04023c00b403000007
:020000040000fa
:04024000b403000003
:020000040000fa
:04024400b4030000ff
:020000040000fa
:04024800b4030000fb
:020000040000fa
:04024c00b4030000f7
:020000040000fa
:04025000b4030000f3
:020000040000fa
:04025400b4030000ef
:020000040000fa
:04025800b4030000eb
:020000040000fa
:04025c00b4030000e7
:020000040000fa
:04026000b4030000e3
:020000040000fa
:04026400b4030000df
:020000040000fa
:04026800b4030000db
:020000040000fa
:04026c00b4030000d7
:020000040000fa
:04027000b4030000d3
:020000040000fa
:04027400b4030000cf
:020000040000fa
:04027800b4030000cb
:020000040000fa
:04027c00b4030000c7
:020000040000fa
:04028000b4030000c3
:020000040000fa
:04028400b4030000bf
:020000040000fa
:04028800b4030000bb
:020000040000fa
:04028c00b4030000b7
:020000040000fa
:04029000b4030000b3
:020000040000fa
:04029400b4030000af
:020000040000fa
:04029800b4030000ab
:020000040000fa
:04029c00b4030000a7
:020000040000fa
:0402a000b4030000a3
:020000040000fa
:0402a400b40300009f
:020000040000fa
:0402a800b40300009b
:020000040000fa
:0402ac00b403000097
:020000040000fa
:0402b000b403000093
:020000040000fa
:0402b400b40300008f
:020000040000fa
:0402b800b40300008b
:020000040000fa
:0402bc00b403000087
:020000040000fa
:0402c000b403000083
:020000040000fa
:0402c400b40300007f
:020000040000fa
:0402c800b40300007b
:020000040000fa
:0402cc00b403000077
:020000040000fa
:0402d000b403000073
:020000040000fa
:0402d400b40300006f
:020000040000fa
:0402d800b40300006b
:020000040000fa
:0402dc00b403000067
:020000040000fa
:0402e000b403000063
:020000040000fa
:0402e400b40300005f
:020000040000fa
:0402e800b40300005b
:020000040000fa
:0402ec00b403000057
:020000040000fa
:0402f000b403000053
:020000040000fa
:0402f400b40300004f
:020000040000fa
:0402f800b40300004b
:020000040000fa
:0402fc00b403000047
:020000040000fa
:04030000b403000042
:020000040000fa
:04030400b40300003e
:020000040000fa
:04030800b40300003a
:020000040000fa
:04030c00b403000036
:020000040000fa
:04031000b403000032
:020000040000fa
:04031400b40300002e
:020000040000fa
:04031800b40300002a
:020000040000fa
:04031c00b403000026
:020000040000fa
:04032000b403000022
:020000040000fa
:04032400b40300001e
:020000040000fa
:04032800b40300001a
:020000040000fa
:04032c00b403000016
:020000040000fa
:04033000b403000012
:020000040000fa
:04033400b40300000e
:020000040000fa
:04033800b40300000a
:020000040000fa
:04033c00b403000006
:020000040000fa
:04034000b403000002
:020000040000fa
:04034400b4030000fe
:020000040000fa
:04034800b4030000fa
:020000040000fa
:04034c00b4030000f6
:020000040000fa
:04035000b4030000f2
:020000040000fa
:04035400b4030000ee
:020000040000fa
:04035800b4030000ea
:020000040000fa
:04035c00b4030000e6
:020000040000fa
:04036000b4030000e2
:020000040000fa
:04036400b4030000de
:020000040000fa
:04036800b4030000da
:020000040000fa
:04036c00b4030000d6
:020000040000fa
:04037000b4030000d2
:020000040000fa
:04037400b4030000ce
:020000040000fa
:04037800b4030000ca
:020000040000fa
:04037c00b4030000c6
:020000040000fa
:04038000b4030000c2
:020000040000fa
:04038400b4030000be
:020000040000fa
:04038800b4030000ba
:020000040000fa
:04038c00b4030000b6
:020000040000fa
:04039000b4030000b2
:020000040000fa
:04039400b4030000ae
:020000040000fa
:04039800b4030000aa
:020000040000fa
:04039c00b4030000a6
:020000040000fa
:0403a000b4030000a2
:020000040000fa
:0403a400b40300009e
:020000040000fa
:0403a800b40300009a
:020000040000fa
:0403ac00b403000096
:020000040000fa
:0403b000b403000092
:020000040000fa
:0403b400b40300008e
:020000040000fa
:0403b800b40300008a
:020000040000fa
:0403bc00b403000086
:020000040000fa
:0403c000b403000082
:020000040000fa
:0403c400b40300007e
:020000040000fa
:0403c800b40300007a
:020000040000fa
:0403cc00b403000076
:020000040000fa
:0403d000b403000072
:020000040000fa
:0403d400b40300006e
:020000040000fa
:0403d800b40300006a
:020000040000fa
:0403dc00b403000066
:020000040000fa
:0403e000b403000062
:020000040000fa
:0403e400b40300005e
:020000040000fa
:0403e800b40300005a
:020000040000fa
:0403ec00b403000056
:020000040000fa
:0403f000b403000052
:020000040000fa
:0403f400b40300004e
:020000040000fa
:0403f800b40300004a
:020000040000fa
:0403fc00b403000046
:020000040000fa
:100400000f8020000e7f22000e01880000000000f7
:10041000000020000000e000020032000001200087
:100420002002880014000700d10007000000e0004f
:1004300003003a0000002000010020000200370005
:100440000000200001002000810f70000100320038
:1004500014000700000020000000e000020032004d
:100460000000020000000000400502000000000043
:100470000040da000000fe004440a90020002000f7
:100480000000e0000300320010002000900188000e
:100490004440a800000006008a1f78008b1f7800e7
:1004a00000000600a1028800800478000000eb0034
:1004b0001f003700e284440054a0b4009905ba003c
:1004c000e284440054a0b4009906ba00e2844400d7
:1004d00054a0b4000006eb00476fde00fd07b20039
:1004e000ae018800636ce10003003a00eaff0700f8
:1004f0000000eb000e003700606ce10008003a00dd
:10050000004deb000a05e800020039003420ec0041
:100510000af0a0008b05e900f9ff3e000400370057
:100520006168e100010032000086eb000b0007006b
:1005300019c7ba001905ba000e04e00003003a001a
:100540000a00e000dbff3a0000000600fe07b200f0
:10055000ae0288008a047800f5ff37000cd0a300b3
:10056000e20f4d001c00390089027800354dba00b9
:100570000a05e800020039003420ec000af0a0006f
:100580008b05e9000f003200254dba000a05e8008e
:10059000020039003420ec000af0a0008b05e900cd
:1005a000080032000c00e0000600320015cdba0051
:1005b0000a05e800020039003420ec000af0a0002f
:1005c0008b05e9008984e80054a0b4000b00e0002a
:1005d000e2ff3a00000006009902ba00055d7800cb
:1005e0008b05e900f7ff3200c82ade00055d7800c0
:1005f0008b05e900f3ff32000c00e000f1ff320050
:1006000019ddba00eeff37003200f8003400f800c0
:10061000881f780018002000a8018800180020001a
:10062000980188004f0478000000fa008020a9009b
:10063000ffff37003200f8003400f800881f780010
:1006400018002000a80188001800200098018800e8
:100650004f0478000000fa008060a900ffff370017
:100660003200f8003400f800881f780018002000dd
:10067000a801880018002000980188004f04780025
:100680000000fa008040a900ffff37003200f800a8
:100690003400f800881f780018002000a8018800a6
:1006a00018002000980188004f0478000000fa002c
:1006b0008080a900ffff37003200f8003400f80006
:1006c000881f780018002000a8018800180020006a
:1006d000980188004f0478000000fa008020a900eb
:1006e000ffff37003200f8003400f800881f780060
:1006f00018002000a8018800180020009801880038
:100700004f0478000000fa008060a900ffff370066
:100710003200f8003400f800881f7800180020002c
:10072000a801880018002000980188004f04780074
:100730000000fa008040a900ffff37003200f800f7
:100740003400f800881f780018002000a8018800f5
:1007500018002000980188004f0478000000fa007b
:100760008080a900ffff37000040da000000fe0093
:040770000000050080
:020000040000fa
:100774000000fa0052000700b70007000080fa00ea
:10078400000006000000fa000080fa0000000600e5
:100794000000fa00fbff07002016800000407800ec
:1007a4006140600000c0ea00614060000080fb001e
:1007b40061006000211680000100a10001007000aa
:1007c40020168800803e2000730007002016800059
:1007d4000000d1006140600000c0ea006140600098
:1007e4000080fb00610060000000400021168000d2
:1007f4000110a1000100700020168800201680005e
:100804004200de006140600000c0ea006140600018
:100814000080fb00610060004200dd0021168000c2
:100824000120a1000100700020168800201680001d
:100834004300de006140600000c0ea0061406000e7
:100844000080fb00610060004300dd002116800091
:100854000130a100010070002016880020168000dd
:100864004400de006140600000c0ea0061406000b6
:100874000080fb00610060004400dd002116800060
:100884000140a1000100700020168800201680009d
:100894004500de006140600000c0ea006140600085
:1008a4000080fb00610060004500dd00211680002f
:1008b4000150a1000100700020168800b6ff370027
:1008c4000000fa004827ef0040a7a90032002000ea
:1008d40080072000a109200033742000804978009b
:1008e4008149780082497800103a8000000178003c
:1008f4000200a00060042000710520002374200081
:10090400804978008149780082497800000000001d
:10091400113a80000000270080806000000023005e
:10092400808f5000faff3a0000000000113a800066
:1009340000022000008060000000e000fbff3200a5
:100944000300070040a7a8000080fa00000006008a
:100954000600fa0020c0b300004f780060c4b30062
:100964001047980070c5b3002047980020742000f9
:10097400200798002e0090009e4090002e41900089
:100984009e417800014878000248780003487800c6
:100994000080fa00000006000400fa001007980026
:1009a4000000eb00000f78000000eb00000f78005f
:1009b4000400370000e823000100200018000700ad
:1009c4001e0fe8001e0090009e007800808f5000eb
:1009d400f8ff35000080fa00000006000400fa0069
:1009e400100798000000eb00000f78000000eb00f7
:1009f400000f7800040037000001200001002000ef
:100a0400070007001e0fe8001e0090009e007800fb
:100a1400808f5000f8ff35000080fa0000000600c7
:020000040000fa
:100a2400f03fb1000180b10006003500ee0309007b
:100a340000000000403fb1000180b100fbff3d0019
:100a44001000b000203fb000020035000080090013
:080a5400000000000000060094
:020000040000fa
:100a5c000000fa00c002a900c022a900c042a900ef
:100a6c00c062a900c082a900c0a2a9000080fa003f
:100a7c00000006000000fa003bff070042ff0700e1
:0c0a8c000000eb000080fa0000000600f3
:020000040000fa
:020000040002f8
:04aff000ffff00005f
:020000040000fa
:020000040002f8
:04aff400fff3000067
:020000040000fa
:020000040002f8
:04aff8003dfa00001e
:020000040000fa
:020000040002f8
:04affc00bf3e000054
:00000001FF
